:020000040800F2
:10000000900C0020DD01000845110008270A0008B7
:1000100041110008310600089B1E00080000000086
:10002000000000000000000000000000E5120008D1
:10003000C107000800000000CD110008F9130008F6
:10004000F7010008F7010008F7010008F7010008B0
:10005000F7010008F7010008F7010008F7010008A0
:10006000F7010008F7010008F7010008F701000890
:10007000F7010008F7010008F7010008F701000880
:10008000F7010008F7010008F7010008F701000870
:10009000F7010008F7010008F7010008F701000860
:1000A000F7010008F7010008F7010008F701000850
:1000B000F70100089D160008F7010008F701000885
:1000C000F7010008F7010008F7010008F701000830
:1000D000F7010008FD1B0008F7010008911C00084B
:1000E000F7010008F7010008F7010008F701000810
:1000F000F7010008F7010008F7010008F701000800
:10010000F7010008F7010008D9160008F7010008F8
:10011000F7010008F7010008F7010008B11900080D
:10012000F7010008F7010008F7010008F7010008CF
:1001300000F002F800F042F80AA090E8000C8244B7
:100140008344AAF10107DA4501D100F037F8AFF294
:10015000090EBAE80F0013F0010F18BFFB1A43F0A5
:100160000103184780310000A0310000103A24BF7D
:1001700078C878C1FAD8520724BF30C830C144BF0C
:1001800004680C607047000000230024002500264E
:10019000103A28BF78C1FBD8520728BF30C148BFEA
:1001A0000B607047642900F07180732900F0F681BC
:1001B000002070471FB51FBD10B510BD00F008FA34
:1001C0001146FFF7F7FF01F0F1FE00F026FA03B445
:1001D000FFF7F2FF03BC01F069FE00000948804709
:1001E00009480047FEE7FEE7FEE7FEE7FEE7FEE719
:1001F000FEE7FEE7FEE7FEE704480549054A064B31
:1002000070470000FD13000831010008900600202F
:10021000900C0020900800209008002070470000FB
:100220000FB4044910B503AA029800F0BBF910BC42
:100230005DF814FB2C00002070B50C460546012A21
:1002400005D02878800600D5EA69002302E0012362
:1002500005E05B1C934202D2E05C0028F9D1A8695A
:10026000E618C01AA861286A184428622846AFF325
:10027000008004E0D5E9012114F8010B9047B44255
:10028000F8D32846AFF3008070BD00002DE9F0419F
:100290000646002410687529314616A510D0AFF324
:1002A0000080002802DA404213A507E031688A077F
:1002B00001D512A502E0490704D511A5012401E0EA
:1002C000AFF3008000210A2206F1240709E0B0FB09
:1002D000F2FCB0FBF2F302FB1C00303078541846FD
:1002E000491C0028F3D123462A463046BDE8F04198
:1002F00000F0D0B8000000002D0000002B0000002E
:10030000200000002DE9F05F894604464FF0000A06
:10031000DFF874B1FB44C0F820A02046E1688847AC
:10032000002874D0252806D0D4E901219047206AFE
:10033000401C2062F1E700265F462046E1688847BE
:100340002028054607DB312D05D2781910F8200C3E
:1003500008B10643F1E7B00701D526F00406C4F85A
:100360001CA00027C4F818A02A2D09D0284601F0A7
:1003700096FD38B304EB8708303DC8F8185019E0F3
:1003800059F8041B204604EB87029161E168884715
:10039000012F054618D1E069002820DA26F0200652
:1003A0001DE0D8F8180000EB800005EB4000303865
:1003B000C8F818002046E1688847054601F06FFD3F
:1003C0000028EED1012F0AD02E2D08D12046E16859
:1003D00088477F1C0546022F46F02006C4DBA06933
:1003E000002803DA404246F00106A061F00701D080
:1003F00026F010066C2D0BD0682D09D04C2D39D06D
:100400006A2D35D0742D35D07A2D33D016E038E0F2
:10041000E1682F4620468847B842054609D16C2F2F
:1004200026D04FF48060E1680643204688470546A1
:1004300004E06C2F1AD04FF4807006430DB3A5F181
:100440004100192802D8203546F400664A4629465C
:10045000204626604E46FFF7A5FE80B101280BD04E
:10046000F61D26F0070000F1080956E74020E4E7F2
:100470008020D8E70020D6E706F104094DE728469A
:1004800052E7206ABDE8F09FBB2F0000704770471D
:10049000704770472DE9F0470D469946924604464D
:1004A00000F124080168880604D5E06921F01001F4
:1004B000216000E00120A84201DD471B00E0002789
:1004C000A1697A1902EB0900081AA0612078C00618
:1004D00002D42046AFF30080002608E0D4E90121D1
:1004E0001AF806009047206A401C761C20624E4590
:1004F000F4DB2078C0060AD52046AFF3008006E082
:10050000D4E9012130209047206A401C2062381E27
:10051000A7F10107F4DC07E0D4E9012118F8050090
:100520009047206A401C2062281EA5F10105F3DCDB
:100530002046AFF300802078000602D50220BDE8F7
:10054000F0870120FBE7000001694A1C026108787E
:10055000704700B58FB0CDE9013100210591054903
:100560007944CDE9031011466846FFF7CBFE0FB082
:1005700000BD0000E5FFFFFF10B5436913B1AFF305
:10058000008001E0FFF758FE012010BD127800F155
:1005900024010A7000224A700122EDE711684FF031
:1005A000FF32E9E7074B70B50D467B44FFF7D1FFFB
:1005B0000446284600F008F810B14FF0FF3070BD37
:1005C000204670BDE3190000007B00F080007047FA
:1005D000754600F029F8AE4605006946534620F0FE
:1005E0000700854618B020B5FFF706FEBDE820409D
:1005F0004FF000064FF000074FF000084FF0000BDF
:1006000021F00701AC46ACE8C009ACE8C009ACE891
:10061000C009ACE8C0098D4670470446AFF30080BE
:100620002046FFF7D4FD0000004870472C0600204C
:1006300000BFFEE70020014908607047400000202D
:1006400010B50021044801F0D3F900220521024829
:1006500001F04AFA10BD0000000C004008B501216D
:10066000042000F0C5FD04208DF803000220ADF841
:10067000000003208DF802006946044800F032F9BA
:100680000221024800F0CBF908BD0000000801403B
:1006900010B5FFF7E3FF2321092000F04BF810BD50
:1006A0000146012913D12148006820F07F40204AEB
:1006B000105C1E4A1268C2F3036301229A40104381
:1006C0001A4A126822F07F42194B985416E099B9E1
:1006D0001648006820F07F40154A105C134A1268E3
:1006E000C2F3036301229A409043104A126822F039
:1006F0007F420F4B985401E0002070470B48006880
:1007000000F18070094A106010460068C0F3036071
:10071000072808D91046006820F070601060104665
:100720000068401C10600120E7E700004000002046
:10073000C805002030B587B004460D4601210820C9
:1007400000F046FDA8B2ADF81000A0B2ADF814005C
:100750000020ADF81200ADF8160004A9174801F00A
:10076000FBF90420ADF804000020ADF806000120DC
:10077000ADF808000020ADF80A00ADF80C0001A9A2
:100780000E4801F05BF932208DF8000002208DF850
:10079000010000208DF8020001208DF8030068465A
:1007A00000F0D2FC01220521044801F09DF901214D
:1007B000024801F01DF907B030BD0000000C0040F8
:1007C0007047000000200149087070473800002081
:1007D00008B50121082000F00BFD10208DF8030062
:1007E0002020ADF8000003208DF80200694604487F
:1007F00000F078F82021024800F011F908BD00004F
:10080000000C014010B501F055FBFFF7E1FF01209E
:100810000149087010BD00003800002010B50446E2
:1008200074B120210E4800F0FAF8642001F08AFB30
:1008300020210B4800F0F5F8642001F083FB0DE067
:100840002021074800F0EDF8642001F07BFB202117
:10085000034800F0E4F8642001F074FB012010BDAF
:10086000000C014070B5054600240BE00120A040BB
:10087000284018B10120FFF7D1FF02E00020FFF768
:10088000CDFF641C082CF1DB70BD000070B505467F
:1008900012480078E8B12C462021114800F0C1F838
:1008A0004FF4967001F04EFB20210D4800F0B7F890
:1008B0004FF4967001F046FB03E02078FFF7D2FF7B
:1008C000641C20780028F8D12021054800F0A7F802
:1008D00001E0002070BD0120FCE70000380000208E
:1008E000000C01402DE9F0410246002500260020C1
:1008F00000230024002791F803C00CF00F0591F8A5
:1009000003C00CF0100CBCF1000F03D091F802C032
:100910004CEA050591F800C0BCF1000F31D0146815
:1009200000202BE04FF0010C0CFA00F3B1F800C0EE
:100930000CEA03069E4220D183004FF00F0C0CFA04
:1009400003F7BC4305FA03FC4CEA040491F803C026
:10095000BCF1280F06D14FF0010C0CFA00FCC2F8D4
:1009600014C00AE091F803C0BCF1480F05D14FF064
:10097000010C0CFA00FCC2F810C0401C0828D1D3AE
:100980001460B1F800C0BCF1FF0F34DD54680020E2
:100990002EE000F1080C4FF0010808FA0CF3B1F852
:1009A00000C00CEA03069E4221D183004FF00F0CD9
:1009B0000CFA03F7BC4305FA03FC4CEA040491F873
:1009C00003C0BCF1280F05D100F1080C08FA0CF89F
:1009D000C2F8148091F803C0BCF1480F07D100F1B0
:1009E000080C4FF0010808FA0CF8C2F81080401CFF
:1009F0000828CED35460BDE8F081024600209368F9
:100A00000B400BB1012000E000207047024600209F
:100A1000D3680B400BB1012000E00020704741611A
:100A200070470161704700BFFEE7000008B501F0A4
:100A300041FA0121442000F0DBFB28208DF803005F
:100A40000120ADF8000003208DF802006946084837
:100A5000FFF748FF48208DF803001C20ADF8000088
:100A600003208DF8020069460248FFF73BFF08BDEE
:100A7000000801400018014010B5044614B10120DF
:100A80002C4908702B480078002837D001212A48CB
:100A9000FFF7B3FF01280ED010212848FFF7ADFF64
:100AA00048B108212548FFF7A8FF20B104212348B9
:100AB000FFF7A3FF10BB00201E4908700A2001F0B9
:100AC0001BFA01211C48FFF798FF012801D10420DF
:100AD00010BD04211948FFF790FF08B90320F7E77C
:100AE00008211648FFF789FF08B90220F0E7102116
:100AF0001248FFF782FFD0B90120E9E701210E4833
:100B0000FFF77BFF98B910210C48FFF776FF01280B
:100B10000DD108210948FFF770FF012807D10421F2
:100B20000648FFF76AFF012801D10249087000203A
:100B3000CEE7000028000020000801400018014016
:100B400070B5002415E004F1B001C8B200F068FAF5
:100B5000012000F065FA102000F062FA002504E0A0
:100B6000002000F08DFA681CC5B2802DF8DB601CF7
:100B7000C4B2082CE7DB70BD2DE9F04105460C46F8
:100B8000B02101EBE401C8B200F04AFA012000F004
:100B900047FA102000F044FA002712E0002604E093
:100BA000002000F06DFA701CC6B2802EF8DB601CCD
:100BB000C4B2B02101EBE401C8B200F031FA781CF4
:100BC000C7B2AF42EADBBDE8F08109E040F237513D
:100BD00000BF0A00A1F1010399B2FAD1421E90B2FE
:100BE0000028F3D1704770B50646002415E004F1E3
:100BF000B001C8B200F014FA012000F011FA102080
:100C000000F00EFA002504E0304600F039FA681CC6
:100C1000C5B2802DF8DB601CC4B2082CE7DB70BDC8
:100C200010B500F071F840213548FFF7FAFE4FF497
:100C300000413448FFF7F3FE3220FFF7C6FF4FF4C0
:100C400000413048FFF7EDFEAE2000F0E9F900204A
:100C500000F0E6F9102000F0E3F9402000F0E0F9A0
:100C6000812000F0DDF9CF2000F0DAF9A12000F0BA
:100C7000D7F9C82000F0D4F9A62000F0D1F9A820B7
:100C800000F0CEF93F2000F0CBF9D32000F0C8F9F6
:100C9000002000F0C5F9D52000F0C2F9802000F056
:100CA000BFF9D92000F0BCF9F12000F0B9F9DA2041
:100CB00000F0B6F9122000F0B3F9DB2000F0B0F933
:100CC000402000F0ADF9202000F0AAF9022000F049
:100CD000A7F98D2000F0A4F9142000F0A1F9A420B8
:100CE00000F09EF9A62000F09BF9AF2000F098F9E3
:100CF0000020FFF778FF0021084600F07BF910BDC7
:100D0000001401400020014008B5012140F23110DB
:100D100000F06EFA4020ADF8000010208DF80300BE
:100D200003208DF8020069460F48FFF7DBFD4FF402
:100D30004040ADF8000010208DF8030003208DF82E
:100D4000020069460948FFF7CDFD0220ADF800001A
:100D500010208DF8030003208DF802006946044836
:100D6000FFF7C0FD08BD0000001401400020014055
:100D7000001001402DE9F05F82460F4690469946EB
:100D8000DDF828B00024002501266CE000240126AF
:100D900011E019F8040018F80510884209D109EB90
:100DA0000400407808EB05014978884201D126010A
:100DB00005E0A01CC4B219F804007F28E9DC00BFDC
:100DC000BAF1760F03DD4FF0000A781CC7B239463E
:100DD000504600F00FF9012E22D03946504600F05F
:100DE00009F9002407E01BF8060000F049F9701C1F
:100DF00086B2601CC4B2102CF5DB07F10800C1B24A
:100E0000504600F0F7F8002407E01BF8060000F059
:100E100037F9701C86B2601CC4B2102CF5DB1CE0E4
:100E2000681CC5B23946504600F0E4F8002404E0DE
:100E3000002000F025F9601CC4B2102CF8DB781CEF
:100E4000C1B2504600F0D6F8002404E0002000F0C3
:100E500017F9601CC4B2102CF8DB0AF1100000F086
:100E6000FF0AA81CC5B218F8050000288ED1BDE8FD
:100E7000F09F2DE9F04704468846154699464FF005
:100E8000000A002600271FE0E85D203800F0FF0A76
:100E90007E2C04DD002408F1010000F0FF0841462B
:100EA000204600F0A7F8002608E00AEB4A0109EB0B
:100EB0004101885D00F0E4F8701CC6B2062EF4DB38
:100EC000A01DC4B2781CC7B2E85D0028DCD1BDE823
:100ED000F0872DE9F04706460F46904699460025D3
:100EE0000024A24630E018F80A002038C5B2782E57
:100EF00002DD0026781CC7B23946304600F07AF889
:100F0000002406E009EB0511085D00F0B9F8601C4B
:100F1000C4B2082CF6DB07F10800C1B2304600F07D
:100F200069F8002407E009EB05112144087A00F074
:100F3000A7F8601CC4B2082CF5DB06F10800C6B2A5
:100F40000AF1010000F0FF0A18F80A000028CAD1CF
:100F5000BDE8F0872DE9FC470646884615469946C8
:100F60000A9F002438E0285D7F2817DD285D8DF872
:100F70000400281940788DF8050000208DF806003F
:100F80001848194B01AA414600903046FFF7F2FE7F
:100F900006F11000C6B2A01CC4B21DE0285D8DF899
:100FA000040000208DF80500012F09D10F4B01AA84
:100FB00041463046FFF78DFF06F10800C6B209E052
:100FC000032F07D10A4B01AA41463046FFF751FFD4
:100FD000B01DC6B2601CC4B2285D0028C3D1BDE8F4
:100FE000FC870000E324000864240008C32C0008E8
:100FF0003C22000870B504460D46B02101EBE50126
:10100000C8B200F00DF8102141EA141000F008F801
:1010100004F00F0141F0010000F002F870BD000083
:1010200070B50446082502211248FFF7F8FC40215C
:101030001148FFF7F4FC17E004F0800028B14FF4EA
:1010400080410E48FFF7EDFC04E04FF480410B486F
:10105000FFF7E5FC40210848FFF7E3FC4021064884
:10106000FFF7DDFC6006040E2800A5F10101CDB2FA
:10107000E2D170BD00100140001401400020014089
:1010800070B50446082502211248FFF7CAFC40212A
:101090001148FFF7C4FC17E004F0800028B14FF4BA
:1010A00080410E48FFF7BDFC04E04FF480410B483F
:1010B000FFF7B5FC40210848FFF7B3FC4021064884
:1010C000FFF7ADFC6006040E2800A5F10101CDB2CA
:1010D000E2D170BD00100140001401400020014029
:1010E00008B50121082000F083F80121402000F01C
:1010F0007FF810208DF803002020ADF800000320B9
:101100008DF8020069460C48FFF7ECFB20210A48E5
:10111000FFF787FC10208DF803002020ADF80000B9
:1011200003208DF8020069460448FFF7DBFB20210D
:101130000248FFF776FC08BD000C01400018014092
:1011400000BFFEE77047000070B5002100230F22AA
:10115000C47804B3154C246804F4E064C4F5E06476
:10116000210AC1F10403CA40447804FA03F18478E7
:101170001440214309010E4C0678A155047804F06F
:101180001F050124AC4005786D11AD0005F1E02587
:10119000C5F8004109E0047804F01F050124AC40C3
:1011A000044D0678761145F8264070BD0CED00E040
:1011B00000E400E080E100E002490143024A1160DE
:1011C000704700000000FA050CED00E070470000D9
:1011D00029B1064AD2690243044BDA6104E0034AAA
:1011E000D2698243014BDA6170470000001002406F
:1011F00029B1064A92690243044B9A6104E0034A0A
:1012000092698243014B9A617047000000100240CE
:1012100030B500210022002400232D4D6D6805F01B
:101220000C0121B1042905D0082923D105E0294D5D
:10123000056022E0274D05601FE0254D6D6805F42F
:101240007012234D6D6805F48034022505EB92423F
:101250001CB9214D554305600BE01D4D6D6805F42B
:1012600000351DB11C4D5543056002E0194D554335
:10127000056002E0174D056000BF00BF144D6D68AA
:1012800005F0F0010909154D6B5C0568DD4045600E
:101290000F4D6D6805F4E061090A104D6B5C4568FF
:1012A000DD4085600A4D6D6805F46051C90A0B4D3B
:1012B0006B5C4568DD40C560054D6D6805F44041D7
:1012C000890B074D6B5CC568B5FBF3F5056130BD57
:1012D0000010024000127A0000093D0014000020B6
:1012E00024000020704710B500F002F810BD000087
:1012F0000CB50020019000903348006840F4803025
:101300003149086000BF3048006800F400300090A8
:101310000198401C0190009818B90198B0F5A06F91
:10132000F1D12948006800F4003010B1012000908C
:1013300001E0002000900098012843D12348006874
:1013400040F01000214908600846006820F00300C2
:1013500008600846006840F0020008601A484068CB
:10136000194948600846406848600846406840F4AB
:10137000806048600846406820F47C104860084659
:10138000406840F4E81048600846006840F080700B
:10139000086000BF0C48006800F000700028F9D019
:1013A0000948406820F00300074948600846406843
:1013B00040F00200486000BF0348406800F00C00A5
:1013C0000828F9D10CBD00000010024000200240A6
:1013D000042808D14FF0E021096941F004014FF0E1
:1013E000E022116107E04FF0E021096921F00401DA
:1013F0004FF0E022116170477047000010B51348AC
:10140000006840F001001149086008464068104932
:1014100008400E494860084600680E4908400B49DC
:1014200008600846006820F480200860084640688C
:1014300020F4FE0048604FF41F008860FFF753FF60
:101440004FF000600449086010BD00000010024029
:101450000000FFF8FFFFF6FE08ED00E0F0B50C46D7
:10146000154600220021068C4FF6FE773E4006848A
:10147000028B018C4FF60C7632407E1C06EA031676
:101480002E433243104EB0420ED0104EB0420BD01D
:10149000B0F1804F08D00E4EB04205D00D4EB04294
:1014A00002D00D4EB04206D14FF6FD76314044F0E9
:1014B0000106314305E04FF6F576314044F0010670
:1014C000314302830184F0BD002C0140003401400F
:1014D0000004004000080040000C0040F0B50C463D
:1014E0001546002200210026078C4FF6EF7C07EA04
:1014F0000C070784028B018C4FF6FF7707EA04166E
:1015000040F6FF473A404FF6FF7707EA03373A4382
:101510004FF6FF7707EA05273A43114FB8420ED03E
:10152000104FB8420BD0B0F1804F08D00E4FB842E8
:1015300005D00E4FB84202D00D4FB84206D14FF63B
:10154000DF77394046F01007394305E04FF65F7703
:10155000394044F01007394302830184F0BD000094
:10156000002C01400034014000040040000800400D
:10157000000C0040F0B50C46154600220021002664
:10158000078C4FF6FF6C07EA0C070784828B018CEF
:101590004FF6FF7707EA04264FF60C773A404FF6EE
:1015A000FF7707EA03172F433A43114FB8420ED093
:1015B000104FB8420BD0B0F1804F08D00E4FB84258
:1015C00005D00E4FB84202D00D4FB84206D14FF6AB
:1015D000FF57394046F48077394305E04FF2FF5713
:1015E000394044F48077394382830184F0BD0000A0
:1015F000002C01400034014000040040000800407D
:10160000000C0040F0B50C461546002200210026D3
:10161000078C4EF6FF7C07EA0C070784828B018C4F
:101620004FF6FF7707EA043640F6FF473A404FF699
:10163000FF7707EA05273A434FF6FF7707EA0337B4
:101640003A43114FB8420ED0104FB8420BD0B0F110
:10165000804F08D00E4FB84205D00E4FB84202D08E
:101660000D4FB84206D14DF6FF77394046F480570A
:10167000394305E047F6FF57394044F48057394372
:1016800082830184F0BD0000002C01400034014041
:101690000004004000080040000C004010B501218B
:1016A0000B4800F0B1F988B120210A48FFF7AEF9E4
:1016B00020B920210748FFF7B4F903E020210548AD
:1016C000FFF7ADF90121024800F08CF910BD0000D0
:1016D00000040040000C014010B500240121A64880
:1016E00000F09BF9002842D0A4480068401CA349A0
:1016F0000860A348007802281CD108460068B0F5AD
:10170000FA7F17D900209E4908709E49096821F088
:101710007F419D4A50549B48006840F08040994961
:1017200008609A4801689AA0FEF77AFD0020974960
:1017300008601CE092480078012818D18F480068A2
:10174000B0F5FA7F13D900208D4908708D490968DA
:1017500021F07F418C4A505401208F4908708B48FA
:1017600001688EA0FEF75CFD002088490860042116
:10177000814800F052F9002878D084480068401C65
:101780008249086002218748FFF737F986490870C7
:1017900000220421784800F0A7F9322000F0D2FBA3
:1017A00002218048FFF729F97F49097888427DD1D5
:1017B00020217E48FFF72AF920B120217B48FFF73E
:1017C0002EF903E020217948FFF72BF96C480078C7
:1017D000022837D169480068952811D96748006800
:1017E000FB280DD26748006880F00050654908600A
:1017F00008460068C0F34070FEF752FF044697E0C9
:101800005E4800683128FAD95C4800689728F6D20B
:101810005C48006800F0805068B15A480068C0F326
:101820004070FEF73DFF04465648006820F08050A7
:10183000544908607CE05348006840F080505149AA
:10184000086075E04E48007888B902215548FFF7D6
:10185000D4F800286CD049480068B0F5FA7F67D901
:10186000012047490870FEF7E5FE61E07FE044484B
:10187000007801285CD102214A48FFF7BEF840B940
:101880003E480068F92804D93C480068B0F5AF7FAD
:101890004AD902214348FFF7B0F8C8B13748006879
:1018A000B0F5AF7F14D33548006800E05AE0B0F5DA
:1018B000E17F0DD83348006840F00050314908609E
:1018C00008460068C0F34070FEF7EAFE04462BE0CD
:1018D00002213448FFF791F840B128480068F92800
:1018E00004D926480068B0F5AF7F1DD902212D48E4
:1018F000FFF783F8A8B921480068312811D91F489B
:10190000006897280DD21F48006820F000501D493C
:10191000086008460068C0F34070FEF7C1FE044648
:1019200002E000201649087014B102201449087022
:1019300000201249086010482030008800F0200084
:1019400040B10D482030008820F020000A492031A5
:10195000088007E008482030008840F02000064951
:101960002031088001220421034800F0BDF8052140
:10197000014800F03AF810BD000C0040440000207F
:101980003C00002040000020C80500204C00002042
:101990006E25640D0A000000490000206525640DD5
:1019A0000A00000000080140480000200018014023
:1019B00010B50121094800F030F868B108480088E6
:1019C00040F40040064908800121044800F00DF869
:1019D0000021024800F00CF810BD00000014004087
:1019E00036000020CA4302827047CA430282704711
:1019F00021B1028842F00102028004E002884FF621
:101A0000FE731A400280704702460020138A0B4082
:101A10000BB1012000E00020704730B502460020E5
:101A200000230024158A05EA0103958905EA0104CB
:101A300013B10CB1012000E0002030BD70B50546A7
:101A40000C46244885420ED0234885420BD0B5F180
:101A5000804F08D02148854205D02148854202D0D8
:101A60002048854200D100E000BF208850B923897A
:101A7000A28861882846FFF7F1FCE188284600F03B
:101A80003EF825E0208804280AD12389A2886188AD
:101A90002846FFF723FDE188284600F039F817E0D3
:101AA000208808280AD12389A28861882846FFF760
:101AB00061FDE188284600F038F809E02389A28812
:101AC00061882846FFF79EFDE188284600F036F839
:101AD00070BD0000002C01400034014000040040B3
:101AE00000080040000C00401AB183890B43838139
:101AF00002E083898B438381704781847047028B26
:101B00004FF6F3731A400283028B0A430283704735
:101B1000028B4FF2FF331A400283028B4FF6FF73A2
:101B200003EA01231A4302837047828B4FF6F37353
:101B30001A408283828B0A4382837047828B4FF2E2
:101B4000FF331A408283828B4FF6FF7303EA01232F
:101B50001A43828370470000002202881D4B98427E
:101B60000ED01D4B98420BD0B0F1804F08D01B4BCC
:101B7000984205D01A4B984202D01A4B984204D191
:101B80004FF68F731A404B881A43174B984207D071
:101B9000164B984204D04FF6FF431A40CB881A43A5
:101BA00002808B8883850B8803850A4B98420BD073
:101BB000094B984208D00E4B984205D00D4B9842E5
:101BC00002D00D4B984201D10B7A03860123838208
:101BD00070470000002C0140003401400004004028
:101BE00000080040000C00400010004000140040BD
:101BF00000400140004401400048014010B540F25F
:101C00002551204800F088F800283AD01D4800F0FF
:101C10003FF9C4B21C48008800F40040F8B91A48E3
:101C2000008800F4804090B10A2C03D000201649AF
:101C3000088026E01448008840F4004012490880DB
:101C400000200988C1F30D01104A505419E00D2CF1
:101C500006D10D48008840F480400B49088010E010
:101C600009480088C0F30D0008490C540648008854
:101C7000401C0549088008460088C72801DD00206F
:101C8000088010BD003801403000002050000020C6
:101C900010B540F22551164800F03EF8F8B114484E
:101CA00000F0F6F8C4B21348008800F40040B0B960
:101CB00010480088B0F5167F12DA00210E48FFF7B1
:101CC0001CFF0C48008818B901210B48FFF790FE53
:101CD00008490888411C074A118008490C5405E04E
:101CE0000448008840F400400249088010BD00000C
:101CF0000048004036000020001400401801002079
:101D000021B1828942F40052828104E082894DF639
:101D1000FF731A408281704770B502460024002389
:101D20000025002040F66A16B14200D100BFC1F381
:101D3000421501F01F03012606FA03F3012D02D11B
:101D40009689334006E0022D02D1168A334001E025
:101D5000968A33400C12012606FA04F416883440A1
:101D600013B10CB1012000E0002070BDF0B50346B6
:101D7000002400260025002040F66A17B94200D151
:101D800000BF1846C1F3421401F01F06012707FAED
:101D900006F5012C01D10C3004E0022C01D11030E9
:101DA00000E014301AB107682F43076002E00768AB
:101DB000AF430760F0BD00002DE9F04786B005464F
:101DC0000E460024A24600BFA1460027B08900B1FC
:101DD00000BF2F462C8A4CF6FF700440F088044365
:101DE0002C82AC894EF6F3100440B0883189084348
:101DF000718908430443AC81AC8A4FF6FF4004402C
:101E0000B0890443AC8201A8FFF702FA1F48874259
:101E100002D1DDF810A001E0DDF80CA0A88900F4E3
:101E2000004040B10AEBCA0000EB0A1031684900DB
:101E3000B0FBF1F807E00AEBCA0000EB0A103168CA
:101E40008900B0FBF1F86420B8FBF0F00401200930
:101E5000642101FB1089A88900F4004040B13220C0
:101E600000EBC900B0FBF1F000F00700044308E00C
:101E7000322000EB09106421B0FBF1F000F00F00FC
:101E800004432C8106B0BDE8F08700000038014013
:101E900001468888C0F30800704700BFFEE730386D
:101EA0000A2801D20120704700207047014600BF78
:101EB0007047000010B56FF00400FFF789FA0A4878
:101EC00000680A49B0FBF1F009490870084600783B
:101ED00000EB4001C1EBC0104FF6FF7101EAC000FA
:101EE0000449088010BD00000000002000127A00A4
:101EF00032000020340000200146114A12884A4373
:101F00004FF0E0235A6100229A611A46126942F0AA
:101F100001021A6100BF4FF0E022106900F00102D7
:101F20001AB100F48032002AF5D04FF0E022126995
:101F300022F001024FF0E0231A6100229A617047FB
:101F4000340000200146114A12784A434FF0E02342
:101F50005A6100229A611A46126942F001021A611E
:101F600000BF4FF0E022106900F001021AB100F446
:101F70008032002AF5D04FF0E022126922F00102EF
:101F80004FF0E0231A6100229A617047320000206E
:101F900000BF054A128802F04002002AF9D0C2B2FE
:101FA000014B1B1D1A8070470038014008B500BF67
:101FB0004FF4E13000F0F2F8FFF77CFFFEF736FD5A
:101FC0004FF4A060FFF7F8F8FFF78AF8FEF728FE55
:101FD0009AE0012002234DA2002100900846FEF75E
:101FE000B9FF012002234CA2102100900020FEF72F
:101FF000B1FF012002234BA2202100900020FEF718
:10200000A9FF012002234AA2302100900020FEF700
:10201000A1FF3FE00020FEF72FFD0446002C39D041
:10202000012C04D0022C0FD0032C29D119E0FEF78B
:1020300087FDFEF72DFB0120022341A20021009025
:102040000846FEF787FF1BE0FEF77AFDFEF7DAFB96
:10205000012002233DA2002100900846FEF77AFFEE
:102060000EE0FEF76DFDFEF713FBFEF7CBFB012044
:10207000022338A2002100900846FEF76BFF00BF44
:1020800000BF01213748FEF7B8FCA04201D004B1DF
:1020900001E00024BEE700BF0320022332A2382162
:1020A00000900020FEF756FF28E00020FEF7E4FC39
:1020B000042800D123E03048008800F4004028B113
:1020C0002E48FEF7E3FB00202B4908802C480068CF
:1020D00000F0804090B12B492BA0FEF7A1F8102111
:1020E0000846FEF749FD01200223264A10210090F0
:1020F0000020FEF72FFF002021490860D5E700BF30
:10210000FEF79EFAFEF75EFB63E7000053656C6323
:102110006574204D6F6465004B4559323A426F74C7
:10212000680000004B4559313A53656E6465720092
:102130004B4559303A526563656976657200000017
:1021400052656365697665720000000053656E64D0
:102150006572000052656365697665722653656E27
:102160006465720000080140574B5F555020546F62
:1021700020457869742100003000002050000020C4
:1021800040000020C8050020BDD3CAD5B5BDD7D6B4
:10219000B7FBB4AEA3BA25730D0A000010B586B024
:1021A0000446012144F20400FFF722F84FF40070C6
:1021B000ADF8140003208DF8160018208DF81700D4
:1021C00005A91C48FEF78EFB4FF48060ADF81400A3
:1021D00004208DF8170005A91648FEF783FB25207B
:1021E0008DF8000003208DF801008DF80200012019
:1021F0008DF803006846FEF7A7FF01940020ADF8B4
:102200000800ADF80A00ADF80C00ADF810000C2085
:10221000ADF80E0001A90848FFF7CEFD012240F2FB
:1022200025510548FFF7A2FD01210348FFF768FD8E
:1022300006B010BD00080140003801400000000059
:1022400000000000002F000000000700070000143D
:102250007F147F1400242A7F2A120062640813234B
:1022600000364955225000000503000000001C22E2
:102270004100000041221C000014083E0814000820
:10228000083E0808000000A06000000808080808D0
:10229000000060600000002010080402003E514968
:1022A000453E0000427F4000004261514946002106
:1022B00041454B31001814127F1000274545453920
:1022C000003C4A494930000171090503003649497B
:1022D000493600064949291E000036360000000034
:1022E000563600000008142241000014141414147F
:1022F0000000412214080002015109060032495928
:10230000513E007C1211127C007F49494936003E43
:1023100041414122007F4141221C007F49494941FE
:10232000007F09090901003E4149497A007F0808F8
:10233000087F0000417F4100002040413F01007FB5
:1023400008142241007F40404040007F020C027F81
:10235000007F0408107F003E4141413E007F090993
:102360000906003E4151215E007F091929460046B9
:10237000494949310001017F0101003F4040403F90
:10238000001F2040201F003F4038403F00631408DA
:1023900014630007087008070061514945430000B5
:1023A0007F41410000552A552A55000041417F00D8
:1023B00000040201020400404040404000000102CD
:1023C0000400002054545478007F484444380038B6
:1023D0004444442000384444487F0038545454183E
:1023E00000087E0901020018A4A4A47C007F080450
:1023F00004780000447D4000004080847D00007F20
:10240000102844000000417F4000007C041804783C
:10241000007C0804047800384444443800FC242438
:1024200024180018242418FC007C08040408004820
:102430005454542000043F444020003C4040207C41
:10244000001C2040201C003C4030403C0044281030
:102450002844001CA0A0A07C004464544C441414E4
:1024600014141414B2E2BEE0C0EBD6DCB3A4C3E68D
:10247000BBFDB6C8B8DFC6C2C4B6D2C7CBD1CBF796
:10248000CEC0D0C7B4F3D0A1B2E9BCC7C2BCC9BEEC
:10249000B3FDCFB5CDB3D6B5C9E8B5A5BCDBB9ABF7
:1024A000C7EAD4AAD1AFC3BFB5E7B3D8D1B9BEADDF
:1024B000CEB3A1E3A94FD0CDBAC5B0E6B1BECAA391
:1024C000D3E0BFD5BCE4B7B5BBD8CDCBB3F6CEC255
:1024D000CAAACAFDBEDDCAB5CAB1CFD4CABECAE453
:1024E000C8EB001060028C00FE02F202FE00F80051
:1024F000FF000004047E018047300F102700478052
:102500007F0000003E22E2223E00FE222222222202
:10251000E20200203F201F1111007F444444444444
:10252000474000040404F484D4A5A6A4D484F4048D
:1025300004040000FE0202123A1613121A324282FA
:102540007E00000000FE82929292FE92929282FEA3
:1025500000000080601F00001E1212121E40807FCB
:1025600000000080808080FF8080A090888482802E
:1025700080800000000000FF40211204081020208D
:102580004040000202E22222F22E2222E22222E235
:102590000202000000FF40407F4949497F4040FF60
:1025A000000000202424A4FE232220FC04040404B0
:1025B000FC000010080601FF0106806319010109F3
:1025C00033C0000000FC242424FC252624FC242401
:1025D00024040040308F80844C55252525554C809F
:1025E00080800004040404F49495969494F4040404
:1025F00004040000FE02027A4A4A4A4A4A7A0282E7
:10260000FE00002020FF202000F8888888FF8888AE
:10261000A8180010301F0888601F80432C1028461F
:102620008180000808C848484849CE48484848C8FA
:102630000808000000FF444444447F44444444FFED
:10264000000000008060F807001CE0010600E01EAA
:10265000000000010000FF00804020130C13204008
:10266000808000101010FF109000FE9180FF80927B
:10267000FE00000444827F01008082462A132A461D
:102680008280008060242424A4643F2424A4242481
:10269000A0600000804829094D8D7B0B09284C98CB
:1026A000000000000202020202FE0202020202FE1A
:1026B0000000004040404040407F40404041424197
:1026C000404000000000BE2A2A2AEA2A2A2A3E00A8
:1026D000000000004442494949497F49494949416C
:1026E00040000020202020202020FF20202020202B
:1026F00020200080804020100C0300030C1020409C
:10270000808000000000E0000000FF00000020408A
:10271000800000080403000040807F0000000000EB
:10272000010E00404424A4948C84FF848C94A4243F
:102730004440004040405F4A4A4A4A4A4A4A5F4051
:10274000404000404042CC0000008484848484FCEB
:102750000000000000007F2010003F40404040414A
:102760004070008080829292929292929292FE8029
:10277000808000404022241048807F0408182422D2
:1027800040400080FE8282FE80FE8282FE8000F851
:1027900000FF00403F0020BF403F40807F00004FCF
:1027A000807F0000FE225A8620102824E32428106F
:1027B00020200000FF040827110D41817F01050939
:1027C000310000000022322AA6A2622111098101F3
:1027D000000000004222130B42827E02020A1223F2
:1027E0004600002030AC63300088C8A8998E88A8C5
:1027F000C8880022672212128040300F00003F403C
:10280000407100008060F80704E4A4A4BFA4A4E41D
:10281000040000010000FF40407F4A4A4A4A4A7FC4
:10282000404000404042CC0040A09E8282829EA058
:102830002020000000003F908840432C1028464193
:102840008080000000F8494A4C48F8484C4A49F852
:1028500000000010101312121212FF1212121213A3
:10286000101000008060F8074020900C030C9020AE
:10287000404000010000FF0080601F000000FF00DA
:1028800000000000804020180680000718204080CB
:10289000000000010020702826212020243860003C
:1028A0000101000000FE20202000F2121AD61212B0
:1028B000F2020000001F080402804F2018071020B9
:1028C0004F80002020222222E2222222E222222203
:1028D000202000804020100C030000003F404040BA
:1028E000407800404042CC0020D04C4B48C80808FB
:1028F000F800000000007F20101F1212125F8040BD
:102900003F000020100CF312125292121212F20227
:1029100002000001011F11111115195191513F11B0
:102920001101000000F888888888FF88888888F866
:1029300000000000001F080808087F888888889F1A
:1029400080F000106002CC8080FC4020FF1008F86E
:1029500000000004047E0100003F40404F40444717
:102960004078000000FE0282828282FA82828282A5
:1029700082020080601F40404040407F40404458F9
:102980004040002030AC63201880824222121A2678
:10299000428000226722121212404242427E42428C
:1029A0004240002030AC63201800084848FF4848E7
:1029B00048080022672212121200020202FF0212CD
:1029C000221E0000000000000C12120C000000008B
:1029D00000000000000000000000000000000000F7
:1029E0000000000008F00808F00808F00022312973
:1029F000260000000007000007000007000000009C
:102A00000000002022A27E2222FE2222007C000062
:102A1000FF0000444249484848497E484848494ADE
:102A2000414000808080BEA2A2A2A2A2A2A2BE803B
:102A300080800000000006050404044484443C0037
:102A400000000000FE20203F2000FC24E42422237C
:102A5000E20000807F0101FF80601F804126182670
:102A60004180000010101010D030FF30D010101036
:102A700010000010080402090808FF0808090204F1
:102A8000081000484AFA0AFE09F949A80000F000B7
:102A900000FF0022110B04FF0409122300000F4065
:102AA000807F0080804020504844C34448502040EC
:102AB0008080000040221A0242827F0202020A1233
:102AC000600000100C44241404050604041424447B
:102AD000140C00004040414141417F41414141408F
:102AE00040000000F8010600F0121212F202020289
:102AF000FE000000FF0000001F1111111F004080A8
:102B00007F0000404042CC0000FC24A4242222A3E9
:102B10006200000040201F20584750484542454869
:102B20005040000000FE0202F2121212F20202FEF7
:102B300000000000007F2020272424242720207F5D
:102B4000000000404042CC0000FF4949C949497F8C
:102B50008000000040201F20405F48444041424523
:102B600058400000007C40404040FF40404040FC56
:102B7000000000007C40404040407F4040404040DA
:102B8000FC00001060028C0000FE9292929292FE75
:102B900000000004047E01407E42427E427E4242AA
:102BA0007E40001060028C00FE929292929292FE01
:102BB00000000004047E014448507F40407F50489C
:102BC000444000100C048414640506F40404040456
:102BD000140C00048484444724140C070C1424446B
:102BE00084040000FC848484FC001010101010FF8A
:102BF000101000003F1010103F0000010640807FC1
:102C000000000090523410FF10345280708F08087A
:102C1000F80800829A566322528E008040330C33AB
:102C20004080001010FF109000FE929292F292925B
:102C30009E800042827F0180601F00FC4447444424
:102C4000FC0000000000FE92929292929292FE008E
:102C500000000040424458407F4040407F40504880
:102C600046400040404242424242C2424242424208
:102C7000404000201008060040807F000000020451
:102C800008300088681FC80810C85452D112940830
:102C9000D01000091909FF0500FF1292FF005F80A4
:102CA0007F0000000000000001E21CE000000000C6
:102CB000000000804020100C03000000030C304096
:102CC0008080000000000000000000000000000004
:102CD000000000000000F800000000000000333099
:102CE00000000000100C06100C06000000000000A0
:102CF00000000040C07840C0784000043F04043F1A
:102D0000040400007088FC08300000001820FF2137
:102D10001E0000F008F000E018000000211C031E57
:102D2000211E0000F00888700000001E21232419D5
:102D300027211010160E0000000000000000000007
:102D4000000000000000E018040200000000071866
:102D500020400000020418E0000000004020180796
:102D6000000000404080F0804040000202010F015E
:102D7000020200000000F0000000000101011F013C
:102D8000010100000000000000000080B0700000A1
:102D9000000000000000000000000000010101012F
:102DA00001010100000000000000000030300000C0
:102DB0000000000000000080601804006018060198
:102DC00000000000E010080810E000000F102020B4
:102DD000100F00001010F8000000000020203F201D
:102DE00020000000700808088870000030282422A5
:102DF000213000003008888848300000182020204A
:102E0000110E000000C02010F80000000704242468
:102E10003F240000F80888880808000019212020B5
:102E2000110E0000E0108888180000000F1120200B
:102E3000110E0000380808C83808000000003F00E4
:102E40000000000070880808887000001C22212102
:102E5000221C0000E010080810E0000000312222CF
:102E6000110F00000000C0C0000000000000303062
:102E700000000000000080000000000000806000F2
:102E8000000000000080402010080000010204083B
:102E9000102000404040404040400004040404042E
:102EA00004040000081020408000000020100804E6
:102EB000020100007048080808F0000000003036E9
:102EC000010000C030C828E810E0000718272423BC
:102ED000140B000000C038E0000000203C23020278
:102EE00027382008F8888888700000203F2020209C
:102EF000110E00C0300808080838000718202020EC
:102F000010080008F808080810E000203F202020E2
:102F1000100F0008F88888E8081000203F202023C0
:102F200020180008F88888E8081000203F200003D7
:102F3000000000C0300808083800000718202022D0
:102F40001E020008F808000008F808203F210101CF
:102F5000213F20000808F8080800000020203F203A
:102F600020000000000808F8080800C08080807F6A
:102F700000000008F888C028180800203F2001261B
:102F800038200008F8080000000000203F20202022
:102F900020300008F8F800F8F80800203F003F0053
:102FA0003F200008F830C00008F808203F20000744
:102FB000183F00E01008080810E0000F1020202043
:102FC000100F0008F808080808F000203F21010150
:102FD000010000E01008080810E0000F1824243851
:102FE000504F0008F8888888887000203F20000330
:102FF0000C30200070880808083800003820212193
:10300000221C00180808F8080818000000203F20BB
:1030100000000008F808000008F808001F20202021
:10302000201F000878880000C83808000007380E04
:10303000010000F80800F80008F800033C0700074A
:103040003C0300081868808068180820302C0303AF
:103050002C30200838C800C83808000000203F2065
:1030600000000010080808C8380800203826212071
:10307000201800000000FE020202000000007F4055
:10308000404000000C30C0000000000000000106BD
:1030900038C00000020202FE000000004040407FF5
:1030A0000000000000040202020400000000000012
:1030B0000000000000000000000000808080808090
:1030C0008080800002020400000000000000000078
:1030D000000000000080808080000000192422226F
:1030E000223F2008F8008080000000003F112020CF
:1030F000110E000000008080800000000E112020D2
:10310000201100000000808088F800000E112020AF
:10311000103F200000808080800000001F222222BB
:10312000221300008080F0888888180020203F202B
:103130002000000000808080808000006B949494C8
:1031400093600008F8008080800000203F2100008C
:10315000203F2000809898000000000020203F20A1
:10316000200000000000809898000000C08080804F
:103170007F000008F8000080808000203F24022D9E
:10318000302000000808F8000000000020203F2048
:103190002000008080808080808000203F20003FD1
:1031A00020003F8080008080800000203F210000C0
:1031B000203F200000808080800000001F20202011
:1031C000201F00808000808000000080FFA1202060
:1031D000110E000000008080808000000E11202071
:1031E000A0FF80808080008080800020203F212000
:1031F00000010000008080808080000033242424AF
:10320000241900008080E0808000000000001F2062
:103210002000008080000000808000001F2020200F
:10322000103F20808080000080808000010E3008E8
:1032300006010080800080008080800F300C030C2D
:10324000300F0000808000808080000020312E0E32
:10325000312000808080000080808080818E701806
:1032600006010000808080808080000021302C22B8
:1032700021300000000000807C02020000000000FD
:103280003F404000000000FF00000000000000FF81
:103290000000000002027C800000000040403F006F
:1032A000000000000601010202040400000000000A
:1032B000000000000080C0E0F0F8FCF8F0E0C08002
:1032C0000000000000000103070F1F0F07030100AB
:1032D00000000004000008000000000000000200E0
:1032E000010000100433000800000020500000001E
:1032F0006C0100085433000850000020400C00000E
:103300008801000800A24A0400000000000000003C
:10331000010203040607080900000000010203047B
:10332000010203040607080902040608010100005F
:10333000000000000000000000000000010000008C
:10334000000000000000000000000000000000007D
:043350000000000079
:0400000508000131BD
:00000001FF
